:10000000201B002001CE0200396D00003D6D000074
:10001000A70A0A010002000004180FAC106498013E
:1000200000000000000000000000000000000000D0
:10003000000000007043030000000000000000000A
:100040000000000000000000FFFFFFFFFFFFFFFFB8
:10005000FFFFFFFF00C0030041000000005004004C
:10006000FFFFFFFFFFFFFFFF280000000000000070
:100070000000000000000000000000000000000080
:10008000204F002020430020204300202043002058
:10009000201B002024750300841C0300C0110020D5
:0C00A0009011002000500400204F0020B0
:10020000201B002001CE0200396D00003D6D000072
:10021000456D0000416D0000496D0000FFCD0200FA
:10022000FFCD0200FFCD0200FFCD0200FFCD020096
:100230004D6D0000FFCD0200FFCD0200FFCD02009A
:1002400031860000FD8E01001D700000C06D0000B1
:10025000BD890100698F0100098F0100218F010014
:10026000018F0100617D0000357E000021980000B3
:100270002D180100C06D0000C06D000029040000B1
:10028000FFCD0200C06D0000597E0000C06D00006F
:10029000C06D0000C06D0000C06D0000C06D0000AA
:1002A000C06D0000C06D0000C06D0000C06D00009A
:1002B0006D8F0100058F010001780100B5830000FA
:1002C000AD8F0100C06D0000E14C0100C06D000069
:1002D000C06D0000C06D0000C06D0000C06D00006A
:1002E000C06D0000FFCD0200FFCD0200C06D000018
:0C02F000C06D0000C06D0000FFCD0200DA
:1002FC00F8B500BFF8BC08BC9E467047F8B500BF07
:10030C00F8BC08BC9E46704710B5054C237833B931
:10031C00044B13B10448AFF300800123237010BDCC
:10032C00F0200020000000004C6F030008B5034BC8
:10033C001BB103490348AFF3008008BD0000000067
:10034C00F42000204C6F0300154B002B08BF134BFF
:10035C009D46A3F5803A00218B460F461348144A5C
:10036C00121A31F0AEFB0F4B002B00D098470E4BFE
:10037C00002B00D098470020002104000D000D48F0
:10038C00002802D00C48AFF3008031F05BFB20005A
:10039C00290011F067FC31F041FB00BF00000800A0
:1003AC00201B00200000000000000000F0200020B6
:1003BC0020430020000000000000000070B5134C2A
:1003CC008A00A31822449B781D09062D98BF104E55
:1003DC0003F00F0394BF755DFF25062B05719ABFC3
:1003EC000C4DEB5CFF234371FF3B18BF0123837162
:1003FC00D37014F82130084C437053788370014645
:10040C00204609F07DFA0123A36070BD0C21002069
:10041C00971E0300901E0300002000407FB5224968
:10042C0022480022FF23CDE901228DF80930037800
:10043C004C6C8D6B03922C40E407DBB228D5022B5D
:10044C0026D88C6C1A4901EB8301A5B2CE781949D8
:10045C0006B326041ED521F813201749012202FAEF
:10046C0003F30A781343154A0B701378CBB10023AE
:10047C001478DC40E407D9B20FD501701078012450
:10048C0004FA03F34340DBB201A81370FFF796FFA5
:10049C0004B070BD21F81350DFE70133032BE7D113
:1004AC00F6E703230370F3E7002000401821002037
:1004BC000C2100201C2100201A21002019210020D1
:1004CC0070B50646104614460D4603F013FF002384
:1004DC0033702046A847BDE8704003F0FABE000018
:1004EC00012202490248FFF7EBBF00BF91CC00008C
:1004FC0020300020012202490248FFF7E1BF00BF73
:10050C00C93A010010300020012202490248FFF7CD
:10051C00D7BF00BFC1D80000003000200122024923
:10052C000248FFF7CDBF00BF85EB0000283000204C
:10053C00022202490248FFF7C3BF00BF91CC000062
:10054C0018300020022202490248FFF7B9BF00BF51
:10055C00C93A010008300020022202490248FFF784
:10056C00AFBF00BFC1D80000F82F00200222024903
:10057C000248FFF7A5BF00BF85EB0000303000201C
:10058C0008B5012020F0FAF9024820F06DF9024B71
:10059C00187008BDA01E03003830002008B503F009
:1005AC00CDFC012805D0034B1878BDE8084020F09D
:1005BC003FB908BD3830002010B50C1E03D120F017
:1005CC00C5F8002010BD02DB20F0CCF8F9E70220C2
:1005DC00F8E7B1F5000F02D20902FFF7EDBF0220D8
:1005EC00704700002DE9F0419846154B154F1B88BC
:1005FC0000264FF00C0CF4B29C4202D30220BDE852
:10060C00F0810CFB04F57C197D5D854205D1658874
:10061C008D4202D12579954201D00136EBE701F0EC
:10062C0087F90028EAD04146A068FFF7C5FF0028EB
:10063C00E4D19DF8183063719DF81C30A371DEE78E
:10064C00881B0020281B002013B59DF81040CDE915
:10065C00003413460122FFF7C5FF02B010BD13B5DD
:10066C009DF81040CDE9003413460022FFF7BAFF85
:10067C0002B010BD07B500230093FFF7F0FF03B0E5
:10068C005DF804FB0E4BF0B51F880E4E00254FF0A5
:10069C000C0CEBB2BB4201D30220F0BD0CFB03F3FC
:1006AC00F418F35C834205D163888B4202D1237921
:1006BC00934201D00135ECE7A36800201870ECE7F9
:1006CC00881B0020281B00200122FFF7DBBF002223
:1006DC00FFF7D8BF2DE9F04F1E4693B0FF23022E33
:1006EC008046894614461C9D9DF874A08DF81E30DA
:1006FC0040F2BA802B785A072BD5042E40F2B480E6
:10070C0095F804B05D4A002302EBC301DFB209790E
:10071C00FF2907D001330A2BF6D1209B002B40F088
:10072C00A780FF27002308AA0DF11F0120798DF85F
:10073C001F3002F0DEFE78B1BDF82C3023809DF81E
:10074C001F0003F0BFFD8DF81D00C8B113B0BDE84C
:10075C00F08F95F802B0D5E7207901F005F9FF2864
:10076C00059000F08380207903F0C4FD8DF81D0006
:10077C000028EBD1059B424800EB031043882380F3
:10078C00618823884FF6FF72B8F1000F08BF4A4604
:10079C00CDE9001258465246002104F06FFD18B105
:1007AC00E38843F02003E380209B0F950DF11D019E
:1007BC000DA8CDE90D34ADF84090ADF842608DF840
:1007CC0044808DF845A002F0CAFE10B19DF81D00C2
:1007DC00BCE7284604F0AAFCA01D04F095FC2246B8
:1007EC004946404604F058FE80B2B0422CD39DF8E6
:1007FC007C300393BDF8783002930DF11E03CDE9E4
:10080C0000532246F3B24946404600F080FD8DF875
:10081C001D00209A9DF81D30D2B15BBB9DF81E20A7
:10082C00FF2A08D0092F06D8144B03EBC7010A7115
:10083C00209A43F837209DF81D3013B9112002F08F
:10084C003AFE03F046FDC1E774238DF81D30E0E756
:10085C00BA2BF0D1E388DB06EDD5002301208DF80F
:10086C001D3003F071FBE6E701206FE7A3206DE775
:10087C00B4206BE7BA2BEDD0E3E700BF24210020B6
:10088C00843100200023054A10B51946FF24D018E6
:10089C00047199500833502BF9D110BD242100203C
:1008AC0010B586B008810A9C04949DF824400394EA
:1008BC00BDF8204002940124CDE9003413460A46C9
:1008CC0001460420FFF706FF06B010BD10B586B038
:1008DC000881089C04940024CDE902440124CDE94C
:1008EC00003413460A4601460320FFF7F3FE06B018
:1008FC0010BD13B500240094FFF7E8FF02B010BD43
:10090C002DE9FF410F469046054688B381B37AB373
:10091C0000266946F0B219F005FF044630B99DF87F
:10092C000030032B06D00136502EF2D1204604B0F5
:10093C00BDE8F0819DF801202B799A42F3D1BDF8E6
:10094C0002206B889A42EED19DF806309DF8050086
:10095C0000EB032080B29DF804306B712881434674
:10096C003A462946FFF7C5FF0028DCD00446DDE7F0
:10097C000224DBE710B586B0089C04940024CDE972
:10098C0002440124CDE9003413460A4601460620F0
:10099C00FFF7A0FE06B010BD10B586B00A9C0494FB
:1009AC009DF824400394BDF8204002940124CDE925
:1009BC00003413460A4601460520FFF78BFE06B0AD
:1009CC0010BDF0B502288BB005460E4614461F46E6
:1009DC000AD106A9F0B219F0A5FE98B99DF8193004
:1009EC0023719DF81C306371119B04930022109BA2
:1009FC000192CDE90222009322463B46314628461D
:100A0C00FFF768FE0BB0F0BD13B500240194049CF5
:100A1C000094FFF7D6FF02B010BD2DE9F043064657
:100A2C008BB00F4690469946002506A9E8B219F0FE
:100A3C0079FE044630B99DF81830012B06D00135EB
:100A4C00502DF2D120460BB0BDE8F0839DF8192053
:100A5C0033799A42F3D1BDF81A2073889A42EED1B9
:100A6C009DF81C307371CDE90309CDE90100CDF877
:100A7C0000803B463246A9B20220FFF72BFE00282D
:100A8C00DDD00446DEE700007FB505460E4620F0BB
:100A9C00ADFF2A46044603460C49022003F0A2FC93
:100AAC008CB986B101238DF80E30032300932246B6
:100ABC0003AB36214FF6FC708DF80C408DF80D50C1
:100ACC0004F0FCFE0446204604B070BD3020030048
:100ADC00FF2810B50C4604D10220044903F082FC17
:100AEC00FE202146BDE81040FFF7CEBFBC2103001D
:100AFC00F8B51F460B8806460D461446002B69D1E7
:100B0C004A88110448BF63783349042003F06AFC17
:100B1C006B8848F20402934238D00FD848F2010295
:100B2C00934244D048F20202934248D0132B0ED188
:100B3C00A2786378294903EB022229E048F20602E5
:100B4C00934229D038D348F2200293422CD03B4612
:100B5C0022462946304600F0BEFC70B93B46224680
:100B6C002946304611F0D2F86A8848F221039A429D
:100B7C0003D16178304602F0C4FC6B88B3F5004FAA
:100B8C0002D9082002F0FAFC012024E0144A15498D
:100B9C00042003F027FCDAE7134A1249042003F07F
:100BAC003DFC22791149F3E762781149F0E71149CC
:100BBC00042003F017FCCAE722790F49E8E70F4A33
:100BCC000849042003F02AFCA27863780C4903EB53
:100BDC000222DDE70020F8BD47200300BD20030002
:100BEC006C20030073200300842003008A20030080
:100BFC0098200300D4200300EE20030010210300F2
:100C0C00152103002DE9F04788B00C469246994611
:100C1C008046BDF84060119D25F0DEFD8DF8088002
:100C2C000746CDE90345ADF81460ADF816008DF814
:100C3C0018A08DF8199000F0FFF98DF81A0000F04B
:100C4C00FDF98DF81B001AF018F88DF81C0002A89D
:100C5C0002F083FCA8B933462A462146384603F0F5
:100C6C008DFF70B933462A4621463846FFF740FFC0
:100C7C0038B9CDE9007033462A464146204604F087
:100C8C0023FB08B0BDE8F0872DE9F74F0D9DBDF8AB
:100C9C0030609DF838B08046894614461F4663B3D1
:100CAC003E4A3F49022003F0B9FB2388002B67D052
:100CBC0040F20912934265D03A4A3B49B3F5827F20
:100CCC0018BF0A466188009101963849022003F04A
:100CDC00A5FB23886BB1022E0BD92B783449354AEE
:100CEC0013F0010F18BF0A46AB783349022003F00A
:100CFC0095FB3249022003F075FB314A0023114663
:100D0C0002EBC300007958453ED152F833A00023C2
:100D1C0001EBC302107958453CD1FF201071002221
:100D2C0041F8332047B9238833B9B4F90230002B8A
:100D3C0002DB082002F0BFFB012002F01FFC55B1C2
:100D4C002B78DB0707D5CDE90057334622464946B9
:100D5C00404601F07AFABAF1000F06D0CDE90057FF
:100D6C003346224649464046D047334622464946FA
:100D7C004046CDE90C5703B0BDE8F04F02F0BDBBC7
:100D8C00104A9FE7104A9DE701330A2BB8D14FF068
:100D9C00000ABCE701330A2BBAD1C3E7DC1F0300FE
:100DAC00E41F0300CF1F0300D21F0300EE1F03003C
:100DBC0012310300D51F03001D2003003629030048
:100DCC0024210020C81F0300CC1F0300962813B554
:100DDC00044635D02ED891283DD0942830D0902878
:100DEC0014D100F021F9214B0090214A2149022015
:100DFC0003F0F8FABC2C29D11F49022003F0F2FAB7
:100E0C0002F0B5FB02F0B4FB02F0B2FB20460FF08F
:100E1C000DF820460DF03CFE20460DF0D5F820468E
:100E2C0011F05AFB00B31549022002B0BDE8104086
:100E3C0003F0D8BAAF2807D8AB280AD29828E5D146
:100E4C000F4B0B4A0F4909E0BC28C9E727F0B4FE49
:100E5C00DAE79128F4D1054B054A0B49022003F03F
:100E6C00C1FA04F0B2F8D1E702B010BD262103009C
:100E7C002F21030036210300432103007B210300B3
:100E8C006A210300722103006121030013B50F4C8A
:100E9C00002003F017FA23686BB101A800F08AFA5E
:100EAC0048B923681A789DF804309A4203D0012A75
:100EBC0007D1022B05D1032301A8ADF8043021F092
:100ECC007BFC03F006FA02B010BD00BF102200201C
:100EDC0010B5044603F0FBF9204602F050FBBDE8C8
:100EEC00104003F0F6B904F09FBE000010B509F0F5
:100EFC007CF9012300224FF4E131202010F0D0F9CD
:100F0C0005F00CFD044606F0B3F9224603461249DF
:100F1C00012003F067FA05F007FD044606F0B6F968
:100F2C00224603460D49012003F05CFA05F0F6FC5D
:100F3C00012303FA00F040F2A17318420BD0084CC5
:100F4C00207805F0F7FC207805F0B0FD2078BDE89E
:100F5C00104005F0B1BE10BDB6220300CC22030038
:100F6C008B1B002037B50022114601A811F096FB0F
:100F7C00002846D11FF00AFA034640B12249234A01
:100F8C00012003F02FFAA021214805F0B1FA03F05B
:100F9C008FF9FFF777FC00F0D9FA00F08BFA0221F9
:100FAC00084603F02BFDFFF771FF02F02FFD194BE4
:100FBC00194C1A4D41F254221A80194A52231380AB
:100FCC00184A012013801BF07DFB06F051F81FF02E
:100FDC0087FA02F0B3FF012801D000F072FA10F08A
:100FEC00B1F9FFF7DBFA2021002002F0C7FE28B18F
:100FFC00224629464FF6FF7003F010FA03F06BF906
:10100C00E3E7019803B030BD0F220300DC1F03009F
:10101C00202203006C2000209D220300B22203003A
:10102C006E200020702000201FF026BB1FF030BB6C
:10103C001FF006B91FF076B925F0CEBE1FB5684675
:10104C0025F0D8FBC8B902A927F004FB0822694691
:10105C000DEB020003F047F810B9002004B010BDEE
:10106C0002A9012027F0F6FA082269460DEB0200CE
:10107C0003F039F890B90120F0E725F0ADFB4FF6FD
:10108C00FF739842044609D0002027F0FBFA8442F3
:10109C00E3D0012027F0F6FA8442ECD0FF20DDE704
:1010AC007FB5054603F013F91FF0E6FA40B16B88E3
:1010BC00B3F5006F04D1681D02F021FA044616E066
:1010CC00284602F059FAD8B90446E6B269463046C9
:1010DC0019F028FB80B99DF800306BB929463046D1
:1010EC0019F086FB0028E9D075280BD08C2403F06E
:1010FC00F0F8204604B070BD0134502CE5D1F5E772
:10110C008D24F4E78B24F2E738B5054603F0DFF8BD
:10111C00284602F02FFA98B9284619F037FB68B127
:10112C0075280CBF8B24882423462A4605490420A5
:10113C0003F058F903F0CDF8204638BD0446F3E728
:10114C008D24F7E7EC22030037B502A9FF2301F841
:10115C00013D044602F0C9F918B19DF8070003B02F
:10116C0030BD094B03EB04131D7B19F088FD854240
:10117C0001D0FF20F3E7204600F040FA0028F8D019
:10118C00204600F091FCEAE7843100202DE9F04183
:10119C0007460D4602F0ABF90646F0B9384600F0AA
:1011AC00E3FBFF2819D00E4C04EB001494F80C80D0
:1011BC0019F065FD804510D163882B80A3886B8066
:1011CC00A3792B710121384600F074FC314668710B
:1011DC00384600F06FFC0126A8713046BDE8F0815E
:1011EC0084310020F8B504460E46154600F0BCFBD1
:1011FC00FF2802D14FF6FF70F8BD0B4B03EB00102C
:10120C00077B19F03CFD8742F4D146B901222946EF
:10121C00204600F075FC0028ECD00088ECE7012E8D
:10122C00E8D10022F3E700BF8431002010B504465A
:10123C0003F04DF82046FFF7C9FDBDE8104003F060
:10124C0048B8000037B50C4B1B681C5C94420D462B
:10125C000AD900922346094A0949022003F0C2F830
:10126C000024204603B030BD0022014600922346E4
:10127C0028461FF0C1FDF4E7081C0020DC1F03000A
:10128C00F7210300F0B599B0144603AD0F4606469E
:10129C0003F01DF8204652222946FFF7D3FF84B2F3
:1012AC008CB10DF10A0025F087FA0DF10B0025F039
:1012BC008BFA9DF90B309DF80A20CDE90045394693
:1012CC003046FFF79FFC03F004F819B0F0BD2DE990
:1012DC00F0419AB01D4605AC0F469046064602F00A
:1012EC00F6FF522221462846FFF7ACFF50B180B2E0
:1012FC000090CDE901459DF8803042463946304694
:10130C00FFF7C2FC02F0E5FF1AB0BDE8F0812DE951
:10131C00F74307460E460A98BDF830809DF8349086
:10132C00194615461FF090FDFF2804463AD00B9B3A
:10133C001870062F34D8DFE807F0040404121929BA
:10134C00220003462A463146384625F0ABFC0546BA
:10135C0020461FF011FC284603B0BDE8F0830C2298
:10136C0003461146284625F06FFCF0E7EA7A03465F
:10137C00CDE900891146284625F028FCE7E703460D
:10138C000C222946304625F0C7FBE0E70190EB7AAA
:10139C0000934A462B463146404625F0E1FBD6E702
:1013AC000225D5E71825D6E70822014902F038BEF8
:1013BC00DD41002020F05CBC13B5044602F087FF31
:1013CC000DF1060025F0F8F90DF1070025F0FCF9F8
:1013DC009DF907209DF80610204609F019FF30B939
:1013EC009DF907209DF8061020460FF055FA02F0E3
:1013FC0070FF02B010BD38B504460D4602F067FF11
:10140C00294620460AF04EF818B9294620460FF016
:10141C0053FABDE8384002F05CBF38B504460D46BF
:10142C0002F055FF2946204609F05CFF18B9294601
:10143C0020460FF01FFABDE8384002F04ABF38B51D
:10144C0004460D4602F043FF2946204609F072FF80
:10145C0018B92946204602F097F8BDE8384002F04A
:10146C0038BF00F044B870472DE9F041984686B07B
:10147C000F4B1546064603A80F461C782DF0CEF9E7
:10148C0015F0FD0F12D030B9BDF80C309B0702D50A
:10149C00032D08BF0324304600942B4642463946A0
:1014AC0002F070F8204606B0BDE8F0810324F2E7A4
:1014BC007421002008B503F059FDBDE8084011F077
:1014CC00E7B908B511F0F4F8BDE8084003F07CBDAD
:1014DC00704702F040B802F044B830B4BDF8084090
:1014EC00BDF80C50CDE9024530BC0AF051BC38B502
:1014FC0004460D4610F050FC29462046BDE8384005
:10150C0002F045B802F02FB812F0A2B810B5074A95
:10151C000123332B194601D1002006E00233D418E5
:10152C0014F8034C8442F4D1505C10BD0223030028
:10153C0000EB8101884201D100207047038893425F
:10154C0001D1408870470430F4E70000F0B589B051
:10155C0040F20123ADF80030F2238DF80230204B1D
:10156C0004934AF2E0131F4AADF814304FF00223F3
:10157C0003200693612301211070ADF81C301A4A28
:10158C001A4D8DF80A100023ADF804308DF8063092
:10159C00ADF80830ADF80C308DF80E300DF1100EA2
:1015AC000DF1180C01AF02AE03AC08461DF8031088
:1015BC0011703EF8131051803CF813109180D95DD6
:1015CC009171F15C507305EBC1019160195D117360
:1015DC000133032B02F11002E8D109B0F0BD00BFBA
:1015EC00040104017521002084310020D02803005F
:1015FC00014B1878704700BF75210020034B03EB9B
:10160C000010407B00F00100704700BF84310020C7
:10161C00413803288CBF002001207047044A821AED
:10162C0004489210424392B202210348FFF780BF54
:10163C007C260300CDCCCCCC382303000388B3F537
:10164C007C4F01D3FFF7EABF044A0548891A054AC3
:10165C0089104A4392B20021FFF76ABF702303003E
:10166C0034230300ABAAAAAA10B50C4601886288E1
:10167C008A420DD1037B21790B4009D0B2F57C4F06
:10168C0008D3FFF7CBFF23891B1A5842584110BDD2
:10169C000020FCE70120FAE738B514460D88D28803
:1016AC0095420AD10388B3F57C4F08D2FFF7C6FFE9
:1016BC0023891B1A5842584138BD0020FCE70120F1
:1016CC00FAE700002DE9F04F8BB04FF0000A0193C0
:1016DC009DF850300593714BDFF8D0911B78049135
:1016EC008046154608935746089A5FFA8AF39A4241
:1016FC0001D8862063E099F800300293D9F80830BD
:10170C000393029A98F80030934240F0BF8099F806
:10171C000D30D80709D5039B1B7907934FF0000BAD
:10172C00079A5FFA8BF39A4204D80AF1010A09F17D
:10173C001009D9E7039B1E68142303FB0B66414673
:10174C003046FFF791FF002800F09C803389069308
:10175C00002306999AB2914202D80BF1010BDFE7F4
:10176C00746809930C2202FB03442146424630461E
:10177C00FFF792FF2279099B00287BD0049B03B1D1
:10178C001C6091061ED4464809E01A79920642BFA5
:10179C00D8783F18BFB20C339C42F6D84148059B11
:1017AC00074493B121463046FFF748FF2388B8F829
:1017BC0002100246029801F081FE60BB7E200BB045
:1017CC00BDE8F08F0027384BE6E7002D35D02146D9
:1017DC003046FFF733FF2388B8F802100246029810
:1017EC0001F06AFE0028E9D0DFF8C490284623797E
:1017FC00DB0615D521463046FFF720FF98F8006030
:10180C00B8F802101495034622463046CC460BB06D
:10181C00BDE8F04F60473846DFF898902F46E6E772
:10182C00019AA3785AB9E278A3F14101012908D8A9
:10183C00013AD2B2394603F069FE0020BFE7019AA3
:10184C00F2E7433B012B05D8023A92B2394603F03A
:10185C0077FEF2E7059B2BB9019B1BB1E37801994D
:10186C008B4218D8394617B902F036FCE5E702F07E
:10187C00D7FBE2E712F0300F02BFE0783F18BFB29F
:10188C00013366E770890744BFB266E7039BD888CB
:10189C000744BFB249E7892091E700BF75210020BA
:1018AC00B43100203C300020702303008431002030
:1018BC00E7340000EB34000010B586B000248DF83E
:1018CC001030BDF820308DF80C00ADF80E10ADF8CE
:1018DC001220ADF8143000942346224602A903A826
:1018EC000294FFF7EFFE029806B010BDF0B5077931
:1018FC0000244FF0140CE3B29F4201D800230DE0FA
:10190C000CFB04F506687319755B8D420DD12AB179
:10191C00802A05D193F90C50002D06DA1846F0BD3B
:10192C00402A02D11D7B6D06F8D40134E3E7000098
:10193C0030B50B4B0B4A1C780023D9B2A14201D312
:10194C00002030BD1946013302EB031515F8105C6D
:10195C008542F2D102EB0112507B00F00100F0E75E
:10196C00752100208431002070B50A4B0A491D787E
:10197C000023DAB2AA4202D3FF22104670BD1C012A
:10198C006618645C844202D1747BE407F5D401339D
:10199C00EFE700BF752100208431002038B50C46DC
:1019AC001546FFF7E1FFFF2809D0064B03EB0010AB
:1019BC002A4621468068BDE83840FFF797BF0020D3
:1019CC0038BD00BF8431002008B50022FFF7E6FFC8
:1019DC00003018BF012008BD08B54022FFF7DEFF1C
:1019EC00003018BF012008BD08B58022FFF7D6FFD4
:1019FC00003018BF012008BD30B5094B094C1978CF
:101A0C000023DAB28A4201D3FF2206E0013304EB51
:101A1C00031515F8105C8542F3D1104630BD00BF9C
:101A2C00752100208431002038B50C461546FFF78F
:101A3C00E3FF054B03EB00102A4621468068BDE806
:101A4C003840FFF753BF00BF843100202DE9F04729
:101A5C00074688469146FFF7A1FFD8B10E4BDFF839
:101A6C003CA01E7800252C46EBB2B34202D3204694
:101A7C00BDE8F08701350AEB051313F8100C87420B
:101A8C00F5D04A464146FFF7CFFF002818BF013476
:101A9C00E4B2E9E7FF24EAE7752100208431002055
:101AAC004022FFF7D3BF0000014B0001185C7047C8
:101ABC008431002070B50D46FFF756FFFF2818D073
:101ACC000E4B03EB001082689AB100231179184673
:101ADC001426DCB2A14200D870BD146806FB034486
:101AEC00247B45B114F0400F1CBF0130C0B2013350
:101AFC00EFE70020F0E714F0800FF5E784310020C9
:101B0C002DE9F0410F469046FFF72EFFFF280BD032
:101B1C00104B03EB00100023856829791C464FF00D
:101B2C00140CDAB2914202D80020BDE8F08128688A
:101B3C000CFB0300067BB8F1000F08D016F0400F29
:101B4C0003D0BC42F1D00134E4B20133E9E716F022
:101B5C00800FF5E7843100202DE9F0418EB0054669
:101B6C0019F08BF803AC202601237F222121074694
:101B7C00204605F0F3FC23464FF47C4200210096EE
:101B8C00012000F0EBFD4FF0480829237F22222191
:101B9C00204605F0E3FC23464FF6E0720021CDF819
:101BAC000080012000F0DAFD29237F22232120462A
:101BBC0005F0D4FC23464FF6E1720021CDF80080ED
:101BCC00012000F0CBFD01237F222921204605F0C6
:101BDC00C5FC41F2542300224FF65641CDE9004694
:101BEC00012000F0CBFD01237F222A21204605F0A5
:101BFC00B5FC41F2542304224FF65641CDE9004680
:101C0C00012000F0BBFD012002F06CFB012D03D084
:101C1C00FF2D4CD187424AD101237F22242120461B
:101C2C00102605F09BFC234600220621009601207D
:101C3C0000F094FD01237F222521204605F08EFC27
:101C4C003023009344F2030223460621012000F0C6
:101C5C0085FD4FF0200801237F222621204605F028
:101C6C007DFC234600220821CDF80080012000F0E5
:101C7C0075FD01237F222721204605F06FFC2346AA
:101C8C004FF480420821CDF80080012000F066FD61
:101C9C0002237F222821204605F060FC212300939B
:101CAC00324623464FF48071012000F057FD02208C
:101CBC0002F018FB022D03D0FF2D49D1874247D1EA
:101CCC0001237F222B212046102505F047FC2346BB
:101CDC00002206210095022000F040FD01237F2206
:101CEC002C21204605F03AFC3023009344F20302E9
:101CFC0023460621022000F031FD202601237F22FD
:101D0C002D21204605F02AFC2346002208210096AE
:101D1C00022000F023FD01237F222E21204605F016
:101D2C001DFC23464FF4804208210096022000F04F
:101D3C0015FD02237F222F21204605F00FFC2123C5
:101D4C0000932A4623464FF48071022000F006FDD2
:101D5C000EB0BDE8F08100002DE9F0411C461B7966
:101D6C0016469A078CB005460F4640F1F5800DF1EA
:101D7C00040829220021404602F0AEF9002D08BFCC
:101D8C004546002E40F081802388B3F57C4F13D15B
:101D9C00974A984B9848A21A92105A4392B23146DD
:101DAC00FFF7C6FB40B923795B0605D401232A460D
:101DBC007F21212005F0E8FB22884FF6E0739A4240
:101DCC0013D18B4A8B4B8C48A21A92105A4392B265
:101DDC000021FFF7ADFB40B92379580605D4292320
:101DEC002A467F21222005F0CFFB22884FF6E17393
:101DFC009A4213D17E4A7F4B7F48A21A92105A43C3
:101E0C0092B20021FFF794FB40B92379590605D40F
:101E1C0029232A467F21232005F0B6FB012F00F051
:101E2C009B80022F40F09880062E40F0E78021889E
:101E3C0091B96F4A6F4B7048A21A92105A4392B2E2
:101E4C00FFF776FB40B923795E0605D401232A46B9
:101E5C007F212B2005F098FB228844F203039A4241
:101E6C007AD1634A634B6448A21A92105A4392B2D5
:101E7C000021FFF75DFB00286ED1237958066BD447
:101E8C0001232A467F212C2064E04FF656439E42C4
:101E9C0030D12188A9B9564A564B5748A21A9210EC
:101EAC005A4392B2FFF744FB41F25423984208D1B3
:101EBC0023795A0605D401232A467F21292005F0CF
:101ECC0063FB2388042BA9D1494A4A4B4A48A21ADE
:101EDC0092105A4392B20021FFF72AFB41F254238D
:101EEC0098429BD123795B0698D401232A467F2103
:101EFC002A2091E7012F94D1062E30D1218891B957
:101F0C003B4A3C4B3C48A21A92105A4392B2FFF700
:101F1C000FFB40B92379580605D43B462A467F214E
:101F2C00242005F031FB228844F203039A4213D19A
:101F3C002F4A304B3048A21A92105A4392B20021C9
:101F4C00FFF7F6FA40B92379590605D401232A463E
:101F5C007F21252005F018FB0CB0BDE8F081082E80
:101F6C002CD1218891B9224A224B2348A21A9210D3
:101F7C005A4392B2FFF7DCFA40B923795A0605D4DA
:101F8C003B462A467F21262005F0FEFA2388B3F52E
:101F9C00804FE1D1164A174B1748A21A92105A4398
:101FAC0092B20021FFF7C4FA0028D5D123795B0641
:101FBC00D2D401232A467F212720CBE7B6F5807F98
:101FCC00CAD12388102BC7D1094A0A4B0A48A21A36
:101FDC0092105A4392B20021FFF7AAFA0028BBD103
:101FEC0023795F06B8D402232A467F212820B1E743
:101FFC0070230300ABAAAAAA34230300082E2CD109
:10200C00218891B9244A254B2548A21A92105A438B
:10201C0092B2FFF78DFA40B92379590605D4012302
:10202C002A467F212D2005F0AFFA2388B3F5804F87
:10203C0092D1194A194B1A48A21A92105A4392B2C9
:10204C000021FFF775FA002886D123795A0683D42C
:10205C0001232A467F212E207CE7B6F5807F7FF472
:10206C007BAF2388102B7FF477AF0B4A0B4B0C48BC
:10207C00A21A92105A4392B20021FFF759FA002883
:10208C007FF46AAF23795B063FF566AF3B462A4681
:10209C007F212F205EE700BF70230300ABAAAAAA02
:1020AC00342303002DE9F04F8BB08046039118F0D8
:1020BC00E4FD444B04901B7805930024059B9C4243
:1020CC0035D2B8F1FF0F0BD04046FFF74DFCFF287F
:1020DC00044631D03C4B4FF0000903EB041B1CE0D1
:1020EC00394B049A03EB04131B7B9342F2D001345B
:1020FC00E4B2E3E71B68142202FB05352B89B3F528
:10210C00967F01D904F0B4FF4FF0000A2A891FFA18
:10211C008AF39A4213D809F10109DBF808301A79CD
:10212C005FFA89F5AA42E5D8B8F1FF0FDFD0039B1F
:10213C0013B94046FFF710FD0BB0BDE8F08F0C2231
:10214C001FFA8AF353436A68D7183E79F1062FD4E5
:10215C009BF800108DF81C102988ADF81E1016F095
:10216C00400F0CBF402180218DF82010D35AADF8C0
:10217C00223039462846FFF761FA7207ADF8240081
:10218C00FB7818D5022BBE6800D936680123009362
:10219C0000231946324607A8FFF794FA039B3BB17C
:1021AC003B46BDF81E209BF800103046FFF7D4FDCF
:1021BC000AF1010AAAE7022B94BF07F10806BE68D0
:1021CC00E4E700BF75210020843100200021FFF7D7
:1021DC0069BF10B501210446FFF764FF2046BDE836
:1021EC001040FFF775B910B5047B14EA010310D049
:1021FC00002201238B4203D3036953F8220010BD44
:10220C001C4218BF01324FEA430318BFD2B2DBB2F3
:10221C00F0E71846F3E7F8B516469DF81820054682
:10222C001F46FFF7BBFB78B10421FFF7DCFF044628
:10223C0050B1284602F05EF83A4631462846A0478F
:10224C00BDE8F84002F045B8F8BD2DE9F74F0C9DFC
:10225C009DF834B081468A461F46144612B30DB31E
:10226C0003B32B7892F80480618813F0080F14BF25
:10227C00402280224046FFF791FB98B10821FFF7DE
:10228C00B2FF064670B1404602F034F8CDE9005B6F
:10229C003B46224651464846B04703B0BDE8F04F96
:1022AC0002F017B803B0BDE8F08FF8B516461A4621
:1022BC000446BDF81870FFF771FBE0B177B9022145
:1022CC00FFF791FF0546B0B1204602F013F83146F6
:1022DC002046A847BDE8F84001F0FBBF1021FFF7EE
:1022EC0082FF054638B1204602F004F83A463146E2
:1022FC002046A847EEE7F8BD73B516461A460546C4
:10230C00BDF81840FFF74AFBB8B1C4B92021FFF75C
:10231C006AFF044670B1284601F0ECFF099B00935C
:10232C009DF81C209DF8203031462846A0470446D5
:10233C0001F0CFFF204602B070BD8624FAE70024DE
:10234C00F8E72DE9F04186680446007801F0D2FFE9
:10235C00002514273279EBB29A4203D8BDE8F0413C
:10236C0001F0B7BF7B4332682078D15A02EB0308E7
:10237C0001F0A6F801214046FFF735FF034608B1EE
:10238C00207898470135E5E770B5084D084E0024D4
:10239C002B78E0B2834200D870BD06EB0010437B73
:1023AC00DB0701D5FFF7CDFF0134F1E775210020E4
:1023BC00843100202DE9F04FDDF828C0BDF824E071
:1023CC009DF82C804C7D38B35CB3012C18BF0424D1
:1023DC009DF83070DFF8749000252846BFB239F8AC
:1023EC0025A092454FEA850610D14E4496F803A0DD
:1023FC001AEA040F0AD0B678464507D31AF0100F24
:10240C0091F80FB00FD0BBF1000F0FD101353B2D60
:10241C00E5D10120BDE8F08F002C14BF0424082462
:10242C00D6E70224D4E7BBF1000FEFD187420AD0E4
:10243C00864508D91E54BCF8006001300136ACF852
:10244C00006080B2E2E70020E4E700BF6C270300E5
:10245C002DE9F04F89B01C4693469DF850300193FE
:10246C00224606460D46FFF799FABDF848308DF81E
:10247C001460ADF816508DF81840ADF81AB0ADF8E0
:10248C001C30814618B9012009B0BDE8F08F05A9B0
:10249C00FFF7EAF80028F6D09DF84C3000259BB2E7
:1024AC002E462F462C46029336E00C231FFA85F855
:1024BC00B9F8002003FB08F8D9F80430B2F57C4FCA
:1024CC0003EB080A1AD333F8080058452ED3029BA5
:1024DC00A3422DD901F05EFE9AF8020001F046FEEF
:1024EC00019B43B19AF8043013F0010F0CBF052087
:1024FC00072001F03BFE0134A4B219E033F80820A8
:10250C00ADF81A20514605AA48460393FFF7C4F8C4
:10251C00039B0028D7D10135B9F80820ABB29A42F9
:10252C00C3D83C44A31B58425841ADE70137BFB256
:10253C000136B6B2EFE72DE9F04F8FB098469DF813
:10254C00703006930023BDF860908DF82C00ADF828
:10255C002E10ADF83220009305460E46174608A9FA
:10256C001A460BA80893199C9DF868B09DF86CA0AE
:10257C008DF83080ADF83490FFF7A4F8089B002B51
:10258C0000F09880BAF1000F07D19A785A4540F0C4
:10259C0094801A79D10740F193801A79520735D576
:1025AC009A685168926809910A92987803F044F8F5
:1025BC00089B059093F803A0BAF1020F17D80346B5
:1025CC005246214609A802F0DCFF059B07905246B3
:1025DC0021460AA802F0D5FF079B012B01D0013040
:1025EC0014D14FF0870A50460FB0BDE8F08F059B11
:1025FC0009985246214602F0C4FF0128F1D0059BF0
:10260C000A985246214602F0BCFFE8E7069B002BD5
:10261C0059D1089B0394DB78CDF80090CDE901B338
:10262C003A4643463146284600F093FF824600283E
:10263C00D9D1089B0394DB78CDF80090CDE901B398
:10264C003A46434631462846FFF756FE8246002856
:10265C00C9D101230093069B224619460BA8FFF70C
:10266C0031F882460028BED1089B324629462046C6
:10267C00FFF772FB43463A4631462846CDE901B492
:10268C00CDF800900DF0D2FD089B0394DB78CDF8CB
:10269C000090CDE901B33A4643463146284600F056
:1026AC0057FFCDF8009043463A4631462846FFF78F
:1026BC00FCFD98E74FF0860A95E74FF08D0A92E7FC
:1026CC004FF0880A8FE74FF0000A8CE72DE9F047AE
:1026DC0086B007460F9D9DF84060BDF838400094C9
:1026EC00CDE90156884691469A4610F043F898B1C8
:1026FC0002280ED84FF00003049308BF0123CDE944
:10270C000263CDE9004553464A4641463846FFF739
:10271C0012FF06B0BDE8F0870120FAE730B587B0AC
:10272C0000240125CDE903549DF82C5002950A9DF7
:10273C00CDE90045FFF7FFFE07B030BD30B587B0DF
:10274C0000240125CDE903549DF828500094CDE9CF
:10275C0001358023FFF7EFFE07B030BD30B587B0F1
:10276C0000240125CDE903549DF828500094CDE9AF
:10277C0001354023FFF7DFFE07B030BD10B586B042
:10278C004FF0000C0124CDE9034C9DF82440029439
:10279C00089CCDE900344023FFF7CDFE06B010BDF8
:1027AC0010B586B04FF0010C0024CDE9034C9DF818
:1027BC0028400294099C0194BDF820400094FFF736
:1027CC00BAFE06B010BD30B587B000258DF81030BC
:1027DC00BDF828308DF80C00ADF80E10ADF81220B5
:1027EC00ADF814300095BDF830300B9A0D9C029565
:1027FC0002A903A8FEF766FF18B914B1029B9B78D7
:10280C00237007B030BD1FB5089C03949DF81C4085
:10281C000294069C019400240094FFF7D4FF04B0AA
:10282C0010BD30B585B000249DF820500394CDE93F
:10283C00013500944023FFF7C6FF05B030BD1FB52E
:10284C00002403949DF81C400294069CCDE90034AE
:10285C004023FFF7B8FF04B010BD0000F0B597B0EF
:10286C001646BDF87470042F48D90DF11304039467
:10287C004124029405ADBDF8704000940195FFF71A
:10288C00A2FF0446A0BB9DF81300A0F14103012B4D
:10289C0021D8284601F0FCFC0130C4B2E31CBB4239
:1028AC002CDA304601F076FC154E002001F05EFC6F
:1028BC009DF8130001F05AFC33881A19512A1DDCBB
:1028CC001048A4B222461844294601F0A9FB3088CE
:1028DC000444348012E0A0F14303012B04D82846B1
:1028EC0001F0DBFC0230D8E7FEF710FE0446D5E71A
:1028FC00304601F04FFC204601F038FC17B0F0BD1B
:10290C007832002088320020C37B10B504460BB10E
:10291C00832010BDC37C1BB1F02B08D08120F8E7BD
:10292C0002F0ECFF30B9E37B002BF1D1F6E70FF0AE
:10293C0057FBF7E70020ECE7C37B10B504460BB15F
:10294C00832010BDC37C1BB1012B10D08120F8E774
:10295C00017D82898B1C9A420CD3806801F07FFC2C
:10296C000AF0AEF940B9E37B002BE9D1EEE70AF0AF
:10297C00BFF9F7E78020E4E70020E2E7F8B5C37B76
:10298C0004460BB18320F8BDC37C052B29D8DFE8A6
:10299C0003F0032A35414C4F057D8289AB1C9A42CA
:1029AC0001D28020EFE7ADB22946806801F057FCD8
:1029BC000646A068A7890235284401F069FC284422
:1029CC0001308742EDD32946A289A06801F04EFC64
:1029DC000146304609F0DEFE002848D1E37B002B8F
:1029EC00D0D18120CFE7017D82898B1C9A42D8D32C
:1029FC00806801F034FC09F0EDFEEDE7037D818980
:102A0C005A1C9142CDD38268591C1144D05C09F0F8
:102A1C0011FFE1E7017D82898B1C9A42C1D380684A
:102A2C0001F01DFC09F086FFD6E709F0DFFFD3E7C4
:102A3C00057D8289AB1C9A42B3D3ADB2294680681E
:102A4C0001F00DFC0646A068A7890235284401F068
:102A5C001FFC284401308742A3D32946A289A068D1
:102A6C0001F004FC014630460AF008F8B4E70020F7
:102A7C0089E7C37B2DE9F7430446002B40F02C81FA
:102A8C00C37C042B00F0B7800BD8012B00F088809E
:102A9C003FD3022B00F09480032B00F0A180812007
:102AAC003DE0402B00F0C8800FD8052B00F0B38020
:102ABC00062BF4D1017D82898B1C9A422ED380681F
:102ACC0001F0CDFB0EF05CF861E0412B00F0F380DF
:102ADC00422BE4D1037D8289D91D8A421ED39DB23B
:102AEC008068691CC65C01F0BAFBEB1C0746A06849
:102AFC00A28910F80380291D01F0B1FB0635A368EB
:102B0C005B5D0093424603463946304611F00CFAA1
:102B1C003DE0057D8289AB1C9A4203D2802003B034
:102B2C00BDE8F083ADB22946806801F098FBA2891C
:102B3C00E91C8A42064605F10203EFD3881C824247
:102B4C00ECD3A068C75C01F08AFB8046A068B4F89F
:102B5C000C900535284401F09BFB2844013081453D
:102B6C00DCD32946A289A06801F080FB8146A068CD
:102B7C00284401F08DFB01300544A06810FA85F55E
:102B8C0000954B464246394630460EF0B5FA0028C1
:102B9C0040F0A480E37B002B14BF83208120BEE790
:102BAC00057D8289EB1C9A42B8D3ADB22946806868
:102BBC0001F055FB0235A368595D0EF01FFBE6E7EB
:102BCC00057D8289EB1C9A42A8D3ADB22946806858
:102BDC0001F045FB0235A368595D0DF0FBFED6E70D
:102BEC00017D82898B1C9A4298D3806801F037FB57
:102BFC000DF05EFFCBE7057D8289EB1C9A428DD3ED
:102C0C00ADB22946806801F02AFB0235A368595DF4
:102C1C000EF0B6F8BBE7057D8289EB1C9A42FFF4F7
:102C2C007DAFADB22946806801F019FB0235A3686F
:102C3C00595D0EF00DF9AAE7057D8289AB1C9A420D
:102C4C00FFF46CAFADB22946806801F008FBA28995
:102C5C00E91C8A42064605F10203FFF45FAF881CAB
:102C6C008242FFF45BAFA068C75C01F0F8FA8046C3
:102C7C00A068B4F80C900535284401F009FB2844F1
:102C8C0001308145FFF44AAFA289A068294601F0C2
:102C9C00EDFA8146A068284401F0FAFA01300544A7
:102CAC00A06810FA85F500954B46424639463046E9
:102CBC0011F022F96BE7057D8289EB1C9A42FFF437
:102CCC002DAFADB22946806801F0C9FA0235A36870
:102CDC00595D11F021F95AE7832020E700201EE707
:102CEC00F8B5C37B04460BB18320F8BDC37C022B23
:102CFC0021D004D8ABB1012B1AD08120F5E7412BA0
:102D0C001CD0422B1DD0402BF7D1037D81899A1CFE
:102D1C0091422DD38268591CD05C515C10F032FF6B
:102D2C0001E00BF0DBFA28BBE37B002BE5D0DBE703
:102D3C000BF0EAFAF7E70BF0FDFAF4E710F068FF96
:102D4C00F1E7037D8289591D8A4211D39DB28068B7
:102D5C00691CC65C01F083FAA2890746E91CA068CD
:102D6C0001F07DFA39460246304610F091FFDAE761
:102D7C008020BAE70020B8E7C37BF7B50446002BE8
:102D8C0040F0D180C37C072B00F2CF80DFE813F03A
:102D9C0008003700590085009A00A900B500C8004A
:102DAC00037D8289591C8A42C0F0C1809DB2691C86
:102DBC00881C8242C0F0BB80A068C75C01F04FFA4F
:102DCC00EB1CA6895A1C964222BFA268D25C2B1D12
:102DDC00014603F1010038BFFF2286422ABFA068DA
:102DEC00FF23C35C38460AF009FE002840F0A1809E
:102DFC00E37B002B14BF8320812003B0F0BD067D44
:102E0C008589731C9D42C0F09280B7B2BA1C954262
:102E1C0007F10103C0F08B808068C15C134601325E
:102E2C00954224BFC25CFB1C03F1010738BFFF2293
:102E3C00BD4228BFC35C805D38BFFF230AF0F6FD9E
:102E4C00D3E7037D8289591C8A4270D39DB2A91C99
:102E5C008A4205F101076AD3881C824267D3A068B5
:102E6C00C65CC75D01F0FBF9291DB4F80CC04B1C06
:102E7C009C4522BFA3685B5C691D024601F1010001
:102E8C0038BFFF2384452ABFA068FF21415C009115
:102E9C00304639460AF0E2FDA7E7027D8189501CD5
:102EAC00814293B222BFA0680133805C03F101021E
:102EBC0038BFFF2091422ABFA268FF21D15C0AF0E3
:102ECC00E9FD92E7017D8289CB1C9A422FD3806861
:102EDC00455C013101F0C3F9014628460AF09AFD20
:102EEC0083E7037D81899A1C914220D38268591C07
:102EFC00D05C515C0AF0A6FD77E7037D8289191D31
:102F0C008A4214D3806899B2C55C4B1C0231C65CF2
:102F1C0001F0A5F93146024628460AF0ADFD64E7FA
:102F2C000AF0C0FD61E7832067E7812065E7802018
:102F3C0063E7002061E72DE9F04FC37B8FB00446B7
:102F4C001BB183200FB0BDE8F08FC37C0B2B4DD889
:102F5C00DFE813F00C00550030014C004C004C0025
:102F6C0057014C004C004C00C301D701037D8289F2
:102F7C00581C824224BFA06810F8038099B234BF59
:102F8C004FF0FF08013118F0070509D10F1DBA42A7
:102F9C002FD3A06801F05DF9B9B20646FF2711E006
:102FAC00022D25D101F108039A42C0F0DF81A568FA
:102FBC000D4499B24B1C9A421BD3A2684FF0FF36BA
:102FCC00575C99B2A2890B1D9A4215D3A06801F0E7
:102FDC0040F900903B462A463146404608F0EEFB4D
:102FEC00002840F0C181E37B002BAAD18120A9E706
:102FFC0000254FF0FF36D1E74FF0FF30E9E7037DB6
:10300C0082899DB203339A4218D32946806801F015
:10301C0023F90335064616F0070712D1A28905F1EC
:10302C0004084245C0F0AD802946A06801F011F9B2
:10303C001FFA88F583464FF0FF0A18E04FF0FF3671
:10304C00E9E7022F40F09C80A28905F108039A421F
:10305C00C0F08E81A7682F449DB26B1C9A42C0F0C1
:10306C009080A2684FF0FF3B12F805A09DB216F0BD
:10307C00100340F0898016F0600903D0B9F1600F9D
:10308C0040F07B81A28905F108039A42C0F072815D
:10309C00A168294409919DB2B9F1000F03D0B9F18F
:1030AC00600F40F06B81AB1C9A42C0F06C812946DA
:1030BC00A0680A9301F0D3F80A9B80469DB2B9F13F
:1030CC00200F02D0B9F1400F62D1A289AB1C9A42F9
:1030DC000A935DD32946A06801F0C1F80A9B81468A
:1030EC009DB206F01803082B55D1A2896B1C9A428D
:1030FC0051D3A268525D0A929DB271044ED5A28939
:10310C002B1D9A424AD32946A0680C9301F0A1F8D2
:10311C000C9B0B909DB216F4004344D0A28905F190
:10312C0010039A423ED3A2682A440C929DB2F20339
:10313C003BD5A289AB1C9A4237D32946A0680D9384
:10314C0001F08DF80D9B9DB2B30331D5A2896B1C98
:10315C009A422DD3A3685B5DCDF80480CDE90603BC
:10316C000C9B05930B9B04930A9BCDE90293099B43
:10317C0000933A4653465946304608F021FB2FE758
:10318C0000274FF0FF3B56E700234FF6FF780993DB
:10319C004FF6FF79A5E7FF230A93AEE74FF0FF3315
:1031AC000B93B8E700230C93C1E74FF6FF70CBE706
:1031BC00FF23D1E7017D8289481C824224BFA0688D
:1031CC00455C8BB234BFFF250133A90714D59E1C77
:1031DC00B24211D31946A06801F041F8B3B20146CE
:1031EC00EA060CD5A0895A1C904208D3A268D25C7E
:1031FC00284608F09FFAF3E64FF6FF71F0E7FF223E
:10320C00F6E7037D82898068591C8A429DB228BFEB
:10321C00013505F102062CBF10F803804FF0FF08B2
:10322C00B24233D3294601F01AF8B5B28146A289CD
:10323C00A0686B1C9A422ABF10F805A04FF0FF0A39
:10324C009DB218F0070624D105F1040B5A4530D372
:10325C00294600F0FEFF1FFA8BF507464FF0FF0BD7
:10326C00A289A0680A92691C8A4223BF435D099314
:10327C008DB2FF23284438BF099301F009F80A9A4C
:10328C0028440130824217D280205BE64FF6FF794A
:10329C00CDE7022E0CD105F108039A4271D34619E1
:1032AC009DB210F805B00135ADB24FF0FF37D7E73E
:1032BC0000264FF0FF37D1E7A289A068294600F01D
:1032CC00D5FF099B0390CDE901B300963B465246CE
:1032DC004946404608F0FEFA82E6007DA289031DAD
:1032EC009A42D1D386B2A568F31CB21C711C043669
:1032FC00EB5CAA5C695C285C3544009508F098FB93
:10330C006EE6037D8289591C8A42BDD38068C65CF7
:10331C009FB216F01F0507F1010104D100F099FFCF
:10332C00791D002206E0022D1BD1421807F109017C
:10333C004FF0FF3006F00703022B01BFA3684D1CB2
:10334C005B5CA9B206F0180518BFFF23082D0ABF55
:10335C00A568FF256D5C00950146304608F056FCCB
:10336C003EE64FF0FF30DCE70020EBE5002521E6E0
:10337C00002772E6002309938EE609934FF6FF7837
:10338C009DE600268DE7B9F1200F4FF6FF787FF40C
:10339C0099AEFDE6C37B10B5044673B1036941F2E7
:1033AC00542223F47F03934209D1037D806818448F
:1033BC000FF008FA70B9E37B23B9812003E0064AC9
:1033CC00934201D0832010BD037D806818440FF018
:1033DC0029FAEFE70020F6E75412000538B5C37B55
:1033EC00002B437D14BF8325C325012B044619D123
:1033FC00036859885879FEF7F7FA98B123685B8807
:10340C00192B03D0212B08D0032B02D1E37B13B152
:10341C008325284638BD8125FBE72046BDE838408A
:10342C00FFF789BD637D002BF3D123685988587948
:10343C00FEF7D2FA0028ECD023685B88062B35D037
:10344C0012D8032B28D006D8002BE2D12046BDE899
:10345C003840FFF759BA042B23D0052BD9D120467D
:10346C00BDE83840FFF705BBB3F5807FCED006D85A
:10347C00082BCED12046BDE83840FFF77DBC4FF677
:10348C0055429342C2D04FF656429342C1D1204688
:10349C00BDE83840FFF77EBF2046BDE83840FFF757
:1034AC004BBA2046BDE83840FFF768BA2046BDE865
:1034BC003840FFF715BC704701207047012070475A
:1034CC007047002070470020704700207047002094
:1034DC007047002070470020704701207047012082
:1034EC007047002070470020704700207047002074
:1034FC007047002070470020704700207047B520AF
:10350C00704770477047704770470020704770478E
:10351C00002070477047002070470000034B1B6869
:10352C001878012808BF0220704700BF1022002025
:10353C007047002070470000034A03460120C3E98E
:10354C00032000221A7070470100FEFF0020704714
:10355C007047002070470020704700207047002003
:10356C00704700207047002070470020704770475C
:10357C00B520704700207047002070477047704797
:10358C00704770477047704770470020704770470E
:10359C0002292DE9F84F0546894604D84FF0000B57
:1035AC005846BDE8F88F1BB10429F7D942F0040244
:1035BC000C9C2A70002B50D06B701B0AAB7003272D
:1035CC0001F098FD07F1020BE85501379DF8283002
:1035DC00EB55464E4FF000085FFA88F30B9AD05C1F
:1035EC000028DDD0732861D8A0F14C03DBB2162B78
:1035FC0004F10407D4F800A039D826FA03F3DB430E
:10360C0013F001033BD162684C2804F1080794B213
:10361C0025D14FF6FF7322469C4214BF0223002390
:10362C000BEB040018448145B8DBDE461846002835
:10363C0051D19B441FFA8BFB5CB1BAF1000FADD09A
:10364C0005EB0B002246514600F0EAFCA3441FFA9E
:10365C008BFB08F101083C46BEE70127B0E7532875
:10366C001BD1D2B2B2F1FF0318BF0123D8E76C28EB
:10367C0005D1504600F011FE023084B20CE07328E4
:10368C0004D1504600F004FE0130F6E7A0F13004FE
:10369C00E3B2092B03D8A4B200231A46C0E7A0F169
:1036AC004103062B3FF67AAF3738E6E7752808D08A
:1036BC0076280CD078280CD077287FF46FAF0423B1
:1036CC0000E00123271D22680024A246A8E702235C
:1036DC00F8E70323F6E70EF1010C013805F80E208C
:1036EC00C0B2120A1FFA8CFEA1E700BF8100400095
:1036FC0010B5044C20600448018004490A60044A57
:10370C00136010BD80210020842100207C2100202A
:10371C007821002070B586B00AAC0D4654F8046BC5
:10372C000B49059409880093CDE9016413460246C0
:10373C0008480068FFF72CFF074B1B681880074BE5
:10374C001B684FF48A525D80DA8006B070BD00BFF2
:10375C0084210020802100207C2100207821002061
:10376C0008B430B586B009AB0C4653F8045B0D4970
:10377C00059309880092CDE9015302460A480023BB
:10378C000068FFF705FF094B1B681880084B1B6886
:10379C004FF48A525C80DA8006B0BDE8304001B04C
:1037AC00704700BF84210020802100207C21002054
:1037BC0078210020044B054A1968126809880346D1
:1037CC0003480068FDF729B97C21002080210020E6
:1037DC00782100200020FFF7EDBF00001FB5074C3B
:1037EC00246824880091CDE901230549054B09681B
:1037FC001B682246FDF754F804B010BD7C21002054
:10380C0078210020802100200023FFF7E7BF000073
:10381C00044B054A1B6812681988044B1868FDF79D
:10382C006FB800BF7C21002080210020782100206F
:10383C0007B5074B1B681B880192064A1268009259
:10384C00054A1268FDF7BDF803B05DF804FB00BF34
:10385C007C21002080210020782100200022FFF70D
:10386C00E7BF00001FB5074C246824880091CDE900
:10387C0001230549054B09681B682246FDF78CF8A6
:10388C0004B010BD7C210020782100208021002074
:10389C000023FFF7E7BF0000014B1868704700BF1B
:1038AC0078210020F8B50D468C680A682649064632
:1038BC00202003F0DCFF6B687BB92449202003F047
:1038CC00D6FF20200DF026FD2149202003F0E4FF37
:1038DC002020BDE8F8400DF01DBD002EF1D01D4D8F
:1038EC001D4E1E4F013C14F8013F23B918492020EE
:1038FC0003F0D2FFE5E7752B16D0762B16D0772B7D
:10390C0016D0732B16D0722B16D0712B16D0622BAF
:10391C0016D06E2B16D01249124A2A2B18BF1146FC
:10392C00202003F0A4FFDEE72946F9E73146F7E74C
:10393C003946F5E70C49F3E70C49F1E70C49EFE799
:10394C000C49EDE70C49EBE75A48030085290300C5
:10395C003629030043290300372903004E290300AD
:10396C008C290300892903005A29030064290300C8
:10397C006F2903007A29030084290300F0B5214A3A
:10398C0092F87B30184452FA80F01F4B90F865C0C7
:10399C0090F866501F78A5EB0C050026EDB230466A
:1039AC00F4B2A54225D90CEB060313445B7811B194
:1039BC000CB92D2B17D0782B1FD0582B05D108B153
:1039CC0037240AE0013C012C14D9602B17D8402B6A
:1039DC00F6D83A2B34BF302400241B1BDBB29F4299
:1039EC0003D900FB07300136DAE7052382F879307A
:1039FC000020F0BD10270020F5E70028E2D0572466
:103A0C00EBE700BF862100208C1B0020094A002315
:103A1C00FF21137082F8783082F8653082F87730A5
:103A2C0082F8793082F87A1082F87B30024A13607F
:103A3C00704700BF862100204432002038B5014673
:103A4C0005460120FFF72EFFD5E901436CB91C4652
:103A5C00084D236863B12946202003F008FF214656
:103A6C000020FFF71FFF0C34F3E71B786E2BEFD011
:103A7C0038BD00BFF428030008B50449202003F02A
:103A8C00F6FE2020BDE808400DF044BCF7280300EA
:103A9C0038B5FFF7F1FF064D002461190C3463199A
:103AAC0053F80C3C03B938BD0020FFF7FBFEF4E7DC
:103ABC00E02803002DE9F84F1F4B204D53F8202030
:103ACC001F49202003F0D3FE2B681BB9BDE8F84F2B
:103ADC00FFF7DEBF1B4FDFF874A0FFF7CDFF00260A
:103AEC00B94697F87B30F4B2013B9C4204DB286862
:103AFC00BDE8F84FFFF7A2BF47FA86F34C4493F8A2
:103B0C0065800023C84494F8662094F86510521A16
:103B1C0003F1010BD2B2DBB2934205D30A49202048
:103B2C0003F0A5FE0136DCE7434451465A782020C9
:103B3C0003F09DFE5B46E6E7901B0020443200201C
:103B4C00EC28030086210020F5280300F12803004F
:103B5C002DE9F74F824C94F87730002B00F0A380BE
:103B6C00804B1B7813F0010F04F101071FD00025C7
:103B7C007D4E14E06319202093F8662093F865308D
:103B8C00D21A44FA85F3D2B293F8651039440DF089
:103B9C00BCFB3146202003F06AFE0135EDB294F8EF
:103BAC007730AB42E6D87149202003F060FE94F8E0
:103BBC0077300193DFF8C0E16D4B002671461EF89B
:103BCC00012B91F801C04FF00008ACEB020C07EB95
:103BDC00020A5FFA8CFC45461868002853D001385D
:103BEC00D14619E02AB9002D4BD04FF001080C3307
:103BFC00F2E719F8011BA1F1410BBBF1190F98BFAA
:103C0C002031A2F1410B98BFC9B2BBF1190F9CBF77
:103C1C002032D2B28A42EAD1A9EB0A01614510F8EE
:103C2C00012FDFD1002ADED11D46524B1D6094F8C6
:103C3C007B30013384F87B30D5E901230136F6B2B1
:103C4C00002A36D01B786E2B32D03F2B24D04FF06D
:103C5C0000094F464FF0070A4FF0040B5FFA89F04A
:103C6C00811994F877C0AA68C9B28C45D35D28D85D
:103C7C0093B117447B782A2B1CBF032384F879302B
:103C8C000AE01D46B3E7B8F1000F01D1002DCCD1ED
:103C9C00022384F87930002594F8790000285CD14F
:103CAC00686800F02FF903B0BDE8F04FFFF7AEBE27
:103CBC001346019AB24281D8032284F879201D461A
:103CCC00EAE7732B08D8712B0AD2002B43D0622B56
:103CDC0030D084F879A016E0A3F17502022AF8D846
:103CEC00752B1ED0762B1FD0732B20D0722B47F642
:103CFC00FF7818BF4FF0FF380121FFF73FFE40451A
:103D0C0001D984F879B0AB683B4409F101095B78BF
:103D1C002A2B94F879301CBF0137FFB2002B9DD0B1
:103D2C00BAE74FF0FF08E7E74FF6FF78E4E74FF00C
:103D3C007F08E1E794F87B30184454FA80F090F84F
:103D4C00653023445B78222BDDD07B2BDBD0052325
:103D5C0084F87930D7E70323FAE7FFF7ABFEA2E745
:103D6C008621002002220020F528030034290300BC
:103D7C00E028030044320020EB2100202DE9F34120
:103D8C005E4C5F4F06460D464FF0000866B90DF1CC
:103D9C00070128460DF0B4FA78B1262800F0A98066
:103DAC00012384F879304BE0002D00F0A28016F846
:103DBC00013B8DF80730013DEDB23A789DF80730A4
:103DCC003B700D2A01D10A2BE0D00D2B0CD0A3F1A6
:103DDC000A025142514122788846042AD6D8DFE89B
:103DEC0002F0051D263C31000121F4E721B1FFF75B
:103DFC00AFFE4FF00108C9E7202B63D0222B07D16F
:103E0C000223237094F87820642A5DD10623C8E736
:103E1C007B2B01D10323F4E70123F2E709B9202B13
:103E2C00F0D194F87730112B3FD10323B9E7222B33
:103E3C00F7D00029E6D0052384F879304FF001083B
:103E4C0004232370B8F1000FA0D094F8790008B1C6
:103E5C00FFF730FEFFF7DAFD98E77D2B94F87A0038
:103E6C0003D1FF28DDD005239BE7602B13D8402B13
:103E7C0013D8392B8CBF002230229A1AD2B20F2AB7
:103E8C0010D8FF280BD002EB0012FF238DF807206F
:103E9C0084F87A30B6E75722EFE73722EDE784F85B
:103EAC007A2073E7202BDED170E70133DBB284F884
:103EBC007730234494F8782083F86520002323700E
:103ECC00002994D1884661E72378012B09D19DF80C
:103EDC000730A3F1410119299CBF2033DBB28DF8C7
:103EEC000730A3189DF807105970013284F8782018
:103EFC004CE7404602B0BDE8F08100BF86210020AF
:103F0C000322002010B5054B0446187800F0DAF9AE
:103F1C00A047BDE8104000F0DCB900BF142200201F
:103F2C0049BA89B24840C0F303114140080380B23A
:103F3C004840C3B280EA431070470000014B187828
:103F4C00704700BF04220020014B1870704700BF5F
:103F5C000422002018F0D8BB38B5A0F14303054665
:103F6C000A2B31D8DFE803F0060A0A12123030307F
:103F7C0030301100BDE8384016F0F0BA16F004FBF2
:103F8C0020B116F0EBFA0028FBD138BD114C20788B
:103F9C000028FAD10123443D23700DF011FE032DAE
:103FAC000DD8DFE805F00606090240F6010028F0FE
:103FBC00CBFF00232370E8E740F60200F7E77521FA
:103FCC00054802F095FAF4E787210348BDE838402C
:103FDC0002F08EBA05220020FE29030070477047BC
:103FEC00704770477047704770477047704770470D
:103FFC007047002070477047704770477047704794
:10400C00704770470020704770477047704700201A
:10401C0070477047704770477047704770477047DC
:10402C008842F0B54FEA92031AD89BB29E008719CA
:10403C0004460D4604370434BC4205F104053AD15C
:10404C00C3EB8333314402EB8303013E304411FA5A
:10405C0083F3994220D011F8012B00F8012FF8E7D7
:10406C00541E20449BB22144A0EB830604460D460B
:10407C00043E043CB442A5F104050ED16FF00304D8
:10408C005C43C3EB833302EB830321449BB20134C7
:10409C002044CB1A994209D1F0BD2F792771EF78C2
:1040AC00E770AF78A7706F786770E2E711F80129B5
:1040BC0000F8012DEEE715F804CC04F804CC15F843
:1040CC0003CC04F803CC15F802CC04F802CC15F898
:1040DC0001CC04F801CCAEE70244904200D1704709
:1040EC0000F8011BF9E710B5013801390AB910467F
:1040FC0006E010F8014F11F8013F9C4201D0E01A84
:10410C0010BD013A92B2F1E710B5013801390AB984
:10411C00104607E010F8013F11F8014FA34202D0FE
:10412C001A1B50B210BD013A92B2F0E70A4B10B50F
:10413C0000241C70FCF778FF084B21461880522293
:10414C000748FFF7C9FF074B07481C8021460C2284
:10415C00BDE81040FFF7C0BF2C22002086320020A3
:10416C0088320020783200207A32002007490B88F0
:10417C00512B9FBF064AD05401339BB29DBF0B807D
:10418C0003F1FF3398180020704700BF78320020ED
:10419C008832002038B50546C0B2FFF7E7FF044669
:1041AC00280AFFF7E3FF14B1002808BF00242046BB
:1041BC0038BDF8B50546C0B2FFF7D8FF0446C5F3C5
:1041CC000720FFF7D3FF0746C5F30740FFF7CEFFE5
:1041DC000646280EFFF7CAFF24B12FB136B10028CE
:1041EC0008BF00242046F8BD3C46FBE73446F9E7FF
:1041FC0070B50A4D2B885A18512A0C460CDC084E07
:10420C000A460146F018FFF70BFF2888204480B2BD
:10421C002880001B304470BD0020FCE77832002061
:10422C00883200200178FF2908BF00210131FFF7F7
:10423C00DFBF194491420ADC0144002003B97047E6
:10424C0011F8012D013B02EB0020DBB2F6E7002058
:10425C0070470423FFF7EDBF0323FFF7EABF08B550
:10426C000223FFF7E6FF80B208BD00008A42034636
:10427C000AD95B5CFF2B08BF00230B44084403499D
:10428C009342A8BF08467047004870470E22002092
:10429C000078FF2808BF0020704708B502220021D3
:1042AC00FFF7DDFF4FF6FF73984208BF002008BDF3
:1042BC00024B034A1A600020704700BF10220020F6
:1042CC0040230300002814BF7020002070470020FA
:1042DC007047002070477047014B1878704700BF3B
:1042EC008431002008B5FDF73FFBFF280CBFFF20F1
:1042FC00002008BD08B5FFF7F5FFFF280CBFA32071
:10430C00002008BD002303707047FCF762B92DE94B
:10431C00F84380460F461646994600F045F828B1FA
:10432C003E443D46EC1BB542A4B201D1BDE8F88336
:10433C0015F8012B4946404604F00F0400F06EF8C6
:10434C00062CEFD1404600F043F8EBE730B4044DB7
:10435C00044C002B14BF2B46234630BCFFF7D7BFB1
:10436C00782A0300FF22030000B502460C49C379EA
:10437C000888117889B0069151780591917804914B
:10438C00D17803911179029151790191927900922E
:10439C0004493E2200F042F809B05DF804FB00BF6E
:1043AC00162200207C2A03004FF6FF73984208D097
:1043BC00030A08D1054B1B78034214BF01200020CF
:1043CC007047012070470020704700BF641C00201C
:1043DC0008B5FFF7E9FF20B12020BDE808400CF03C
:1043EC0099BF08BD0EB417B505AA044652F8041BB4
:1043FC000192FFF7D9FF40B1202003F060FA054984
:10440C00202003F034FA044B1C8003B0BDE81040AC
:10441C0003B0704734290300162200200EB417B5E0
:10442C0005AA044652F8041B0192FFF7BDFF20B108
:10443C00202003F044FA034B1C8003B0BDE810406D
:10444C0003B070471622002013B503680446587950
:10445C0000F03CFD236880B95A88032A0DD0E17C1A
:10446C005B790120CDE900210E490F4AFFF7BAFF15
:10447C000121204600F0FFFE08E05B88192B08D0D4
:10448C002046FEF7ABFF01460028F2D1012002B016
:10449C0010BD637D012BF3D120460AF0E1FD00280D
:1044AC00EED0F3E7992A0300912A03002DE9F04F8F
:1044BC008BB0C27C0592427D03688668B0F80CB064
:1044CC0090F814905F88002A14BF80224022054681
:1044DC005879069200F0FAFC90B9059B052B04D88C
:1044EC00059A2D23D340DB070AD4032F08D0AE49FD
:1044FC000120FFF777FF0121284600F0BCFE61E1A7
:10450C00EB7B1BB12A8A002A00F04582A74A0021C6
:10451C001180697D0029904614BF002008200BB142
:10452C0040F00400FFF722FEEB7B13B1288AFFF763
:10453C0031FEA87CFFF71AFE059B1FFA89F4162B97
:10454C0000F22382DFE813F01700460169005600E1
:10455C007A0169003801830142018C0195019E01A9
:10456C000101B201210221022102C801F101C8019D
:10457C0009020101B2010120FFF7F8FDDFF834A2B6
:10458C00631C5B4502DB00F029FE1BE15A46214609
:10459C003046FFF764FE814657B9012808D1DAF896
:1045AC00003018684A463B46394640790FF0F6F819
:1045BC002B685879B8F80030C3F152039BB20193C1
:1045CC002B8A00934A46069B3946FCF786FF70B946
:1045DC002B685879B8F80030C3F152039BB20193A1
:1045EC002B8A00934A46069B3946FEF737F9A21CE4
:1045FC0094B2C5E70420FFF7B9FD4FF00009A31CE6
:10460C005B4520DBB9F1000FBDD1EB7B2C7D002B82
:10461C00664B0CBF022204221A800420FFF7A6FD71
:10462C004FF0000AD04604F10309CB454DDC059B45
:10463C00052B00F0C780B8F1000FA4D1BAF1000F20
:10464C007FD1802158E75A4621463046FFF707FEB6
:10465C003319079093F802A05046FCF7D9FF68B3C2
:10466C00E01C3044FFF714FE01305FFA80F850462E
:10467C00FCF7CEFF28B108EB0403ABEB0303032BD1
:10468C0021D42B685879CDF808A0E31C334401934E
:10469C002B8A00933946DDE90632FEF781F840B1EA
:1046AC0009F10109FFF762FD07985FFA89F9FFF735
:1046BC0071FD08F10302224494B2A0E75046FCF7C6
:1046CC0025FF8046D3E78020EAE75A46214630464C
:1046DC00FFF7C5FD331908909B7807931846FCF734
:1046EC0097FF06EB09030993E0B11846FFF7D0FDDD
:1046FC0001305FFA80F92B68089A5879079B02936E
:10470C00099B01932B8A00933946069BFDF7DEFF2C
:10471C0068B90AF101035FFA83FA09F10302224432
:10472C0094B280E70798FCF7F1FE8146E3E708F1C5
:10473C0001035FFA83F8FFF719FD0898FFF72AFDCC
:10474C00EBE74046FFF712FD1DE7059B0C2B14BF52
:10475C0016200D20FFF70AFD214630465A46FFF77A
:10476C007EFD059B4E44152B8246B47802D1132C4A
:10477C0028BF13240020B8F80060FFF7F7FC2B6863
:10478C005879059BA3F1150CDCF1000343EB0C03EA
:10479C00CDE901432B8A00935246069B3946FDF71F
:1047AC0057FE034B9855EEE6C32A030078320020DF
:1047BC00883200200433002028460BF09FFE00288E
:1047CC0000F0E38001200BB0BDE8F08F28460BF021
:1047DC0065FCF4E70A2F06EB090824D1DFF8C0A129
:1047EC009AF80030FBB1EB7BEBB9ABEB0909B9F1F3
:1047FC00080F18D15A4621463046FFF730FD90B9C4
:10480C0098F80290B9F1000F0DD198F80330E22B13
:10481C0009D1211D5A4689B23046FFF71AFD00F026
:10482C00E0FA8AF80090ABEB040292B241463846AB
:10483C00FCF768FE0028C5D100215DE6ABEB040255
:10484C0092B206EB09013846FEF79FFEF2E7ABEB9E
:10485C00040292B206EB09013846FEF734FEE9E792
:10486C00ABEB040292B206EB09013846FEF77DFE73
:10487C00E0E7ABEB040292B206EB09013846FCF719
:10488C0043FED7E70134A4B22B6816F80980345DD7
:10489C005879069B0093424639462346FDF7BBFCEC
:1048AC00224641463846FEF710FE8BE7059B16F86C
:1048BC000910A3F11600621C434292B24341ABEBC8
:1048CC00020B0031009332441FFA8BF318BF012105
:1048DC003846FEF7FCFDADE7059B16F809A04E44E3
:1048EC00112B96F801901BD11220FFF73FFC0020F2
:1048FC00B8F80040294ECDF80480C4F1510292B2B0
:10490C00631C00923344CDE902A93A462946FDF7CF
:10491C0051FDB8F8003030550133A8F8003032E6BC
:10492C001420FFF723FC0120E2E716F809200134DC
:10493C00A4B2003206EB0403ABEB040418BF012253
:10494C00A4B20021C8B2844201F10101FAD8298A2B
:10495C0000943846FEF7BFFD6CE716F809200134C9
:10496C00A4B2003206EB0403ABEB040418BF012223
:10497C00A4B20021C8B2844201F10101FAD8298AFB
:10498C0000943846FEF7A5FD54E7EB7B002B0CBFDB
:10499C0082218421B0E58421AEE500BF883200205D
:1049AC001822002082B2074B42B11A80000C064B31
:1049BC000ABF4FF6CE2218801A8070474BF6EF6272
:1049CC00F3E700BF661C0020681C0020094B188808
:1049DC00020448BF80F0620042001A80064A138825
:1049EC00190444BF83F4805383F00B0359001180E6
:1049FC0058407047661C0020681C0020034B187040
:104A0C00034B1970034B00221A7070471A220020B6
:104A1C00192200201B22002010B5012404704FF62F
:104A2C00FB74A1429CBF6FEA43436FEA534303817B
:104A3C00426008210348FFF768FC0420BDE81040E1
:104A4C00FEF739BDDC32002030B585B00446FFF7E7
:104A5C0039FC0C20114B604300241D181C541048C9
:104A6C00FFF750FC0420FEF789FD696889B12B899A
:104A7C00039443F38132C3F30E0302F00202ADF848
:104A8C0006304FF6FF738DF80420ADF8083001A8FE
:104A9C008847FFF71EFC05B030BD00BF1C2200206C
:104AAC00DC32002038B50446436808460D4698476A
:104ABC00B4F90830002B02DB2B78042B07D1002330
:104ACC00636016F0DAF8BDE83840FFF7BDBF38BDBB
:104ADC002DE9F843994605460E46904616F0CDF85A
:104AEC0004460C20104F60433B5CDBB94FF6FB7265
:104AFC004FF6FD73954288BF1D4631464B464246E4
:104B0C00284600F043F9064648B924B204EB4404A5
:104B1C000623089A294607EB8400FFF77DFF3046F1
:104B2C00BDE8F8837026FAE71C2200202DE9F0413D
:104B3C000746884616F0A1F80C230D4E4343044655
:104B4C00F25C9AB940231146384623F0A0FC054686
:104B5C0048B924B204EB440401234246394606EB1F
:104B6C008400FFF759FF2846BDE8F0817025FAE76D
:104B7C001C2200200020FFF767BF00002DE9F04742
:104B8C009CB014461D460F4616F077F80C237E4A4F
:104B9C0043438146D65CD0189046002E00F08B80A3
:104BAC003988002940F0ED8002897B8842F400406E
:104BBC00834240F0E680617800297CD10FFA89F7B6
:104BCC0007EB4707A3F5004308EB8707062B00F21A
:104BDC00D880DFE813F097009700D600D6000700C6
:104BEC00B7007400E179A379E07A8DF80C0003EB3F
:104BFC000123ADF81C30617A237A03EB0123811D6C
:104C0C000D3DADF81E3014F811C063798DF82030CD
:104C1C0015F001058DF814C04DD10DF1240ECDF811
:104C2C0010E004F10C082B465FFA83F9484508F1B3
:104C3C00020809D918F801AC18F8029C09EB0A29EA
:104C4C002EF813900133EFE74B0001330EEB4001CC
:104C5C0003F0FF0306915FFA85FE0EEB0001E645BB
:104C6C00C9B211D20DF1700E0EEB410104EB030E23
:104C7C0001359EF8018014F803E002330EEB082E88
:104C8C0021F84CECDBB2E6E712F4004F0CBF012329
:104C9C000323E1788DF80030A37803EB0123ADF802
:104CAC000430C2F30E0203ABADF802200293694646
:104CBC003846FFF7F7FE30461CB0BDE8F087042DF0
:104CCC00F9D9053D2379ADB29D42F4D1002BF2D038
:104CDC00A378E1788DF80C5012F4004F03EB01230C
:104CEC0004F105040CBF01200320C2F30E02ADF841
:104CFC00283003AB04948DF82400ADF826200B93D8
:104D0C0009A9D5E70B2DD6D903AD0822A11C28463D
:104D1C00FFF786F90C2303FB0988E17AB8F8083011
:104D2C000B9513F4004F0CBF042203228DF82420A2
:104D3C00A27AC3F30E0302EB0122ADF82820ADF8E2
:104D4C002630DDE7042DB6D9E178A37803EB0123F7
:104D5C002179ADF828304B1DDBB2AB42ABD112F44C
:104D6C00004F0CBF012303238DF82430C2F30E0235
:104D7C0003AB0534ADF826200B9304948DF80C107E
:104D8C00BEE7002697E700BF1C2200202DE9F34167
:104D9C00054601200E4690461F461BF0C7FEFF2815
:104DAC0004461CD002211BF0BBFE424600212046CB
:104DBC001CF023F9002F4FF48A53009328460DBFA3
:104DCC002346FF232246FF22314600F0E3FC054632
:104DDC0020461BF0D1FE284602B0BDE8F081182514
:104DEC00F9E7FEF7CEBBFEF77CBB000010B50268FE
:104DFC00174B118819805188598051791971117983
:104E0C0059714FF48A51D980D188890644BF4FF427
:104E1C008B51D980D2888169520642BFDA8842F020
:104E2C004002DA800B4A137831B90B49C0880880EC
:104E3C0023F00203137010BD084C43F002031370EF
:104E4C0020461622FFF7ECF800232370F3E700BF8F
:104E5C007A3200202C220020863200202E220020C4
:104E6C0010B5184C23685879FCF77EFDFF2822D02A
:104E7C00154B03EB0010237F027B9A421BD1236856
:104E8C00428819888A4205D04FF6FF70814212D1B0
:104E9C00120410D42279023A012A06D9A37B63B1F9
:104EAC000848BDE81040FFF7CFBA1989587907F0C8
:104EBC00FFFD0028F2D1002010BD0248BDE81040D3
:104ECC00FFF7F4BAE43200208431002008B5FCF777
:104EDC004BFD022896BF024B0020185C08BD00BF9A
:104EEC00083300201FB50223009300220DF10E039E
:104EFC000321FDF796FC38B9BDF80E00003018BF41
:104F0C00012005B05DF804FB0020FAE72DE9F04B19
:104F1C001F469DF82030082B164623D803444FF02B
:104F2C00000B4FF0000C984209D1BC4508BFB345AB
:104F3C0013D2B6EB0B0067EB0C01BDE8F08B13F84A
:104F4C00014D4FEA0C294FEA0B2849EA1B69002551
:104F5C0014EB080B45EB090CE5E7BBEB06006CEB1F
:104F6C000701EAE700200021E7E7000008B5002070
:104F7C00FFF7A8F9FF20FDF729F9FFF7AAF9FCF7CD
:104F8C0037FB012182B20C48FFF7A6F80B4B0C4AF9
:104F9C000C485221FEF7ACFBFBF7F2FA01F0BAF920
:104FAC0006F064FB0AF048FF07F006FF00F0B4FFC0
:104FBC00BDE80840FDF7E8B9083300207A3200203C
:104FCC007832002088320020704708B51CF056FB60
:104FDC0020B91BF035F908B90BF01AF9FEF7C7FA2E
:104FEC00BDE80840FEF7CFBA30B5084D00234FF6A8
:104FFC00FF719AB235F832408C4201D10A4603E077
:10500C00844203F10103F4D1104630BD1C3103007E
:10501C0038B50546FFF7E8FF4FF6FF72014691429F
:10502C0018BF094B094C08BF0949208817BF03EB6F
:10503C00C1032A465A680749FFF7F0F92088BDE8F2
:10504C003840FFF7C5B900BF1C3103001622002001
:10505C00E82F0300E722030073B51546089C2E7851
:10506C0016F0040F14BF052603269E421A4608D9D3
:10507C00022000961D4A1E49FFF7B4F9002002B029
:10508C0070BDBDF8183021712060E380A560A2814D
:10509C002B7803F00103A3732B7803F00403002B8C
:1050AC0014BF01210021E1732978C1F3C00161759E
:1050BC004FF00101217517D02846FFF7D0F8237D5A
:1050CC00208202332375237D5A1CD2B22275E95CEF
:1050DC00A17402332375AB5CE374079BA36115F0D9
:1050EC00CCFD20770120CAE72382ECE7DC1F03000C
:1050FC0051300300034B18780130C0B2187000F027
:10510C007F0070476C1C002038B1074B1B78012BBB
:10511C0004D1038843F0400303807047022BFCD179
:10512C00038823F04003F7E72B22002068B1074ADD
:10513C001378012B07D1064B1B781370037843F0BF
:10514C001003037001E0022BF8D0704729220020D5
:10515C002A22002073B51A4D2A78D40706462CD47F
:10516C00184B1978184B187840074CBFD9705970E8
:10517C00164912F00204098809D0134A144807F0A2
:10518C0077FF2B7823F002032B7002B070BD114A0D
:10519C0010884FF6FB72904208D8CDE900360E4AC3
:1051AC000B4601462046FBF70CFCEEE70A46009640
:1051BC00054B0949FBF7DEFBE7E70020E5E700BFFD
:1051CC002C2200206B1C002088320020783200201A
:1051DC002E220020863200207A3200200020FFF799
:1051EC00B9BF000070B50379012B04460D46164675
:1051FC0031D883681B78DB0600D561B3A37B13B968
:10520C00E37C0B2B27D0154B00221A80637D934235
:10521C00E37B0CBF08201046ABB9FEF7A7FFA07CC0
:10522C00FEF7A4FF0B20FEF7A1FFE07CFEF79EFF2C
:10523C002846FEF79BFF2046FFF7D8FD3046BDE819
:10524C007040FFF787BF40F00400FEF78FFF208A05
:10525C00FEF7A0FFE3E7002070BD00BF783200200E
:10526C00024B0A4601461868FFF7BCBF0433002006
:10527C000021FFF7F5BF0022FFF7B4BFF0B40646DC
:10528C0018460F4BBDF810401B780E4D012B01D06A
:10529C002F7827B1002129700846F0BC704709B956
:1052AC00002AF9D14BB14FF657439C4205D03346F7
:1052BC000A462146F0BCFEF704B90121ECE700BF19
:1052CC006A1C0020282200202DE9F04F654E664C08
:1052DC008446964699460F460FCE25460FC596E84E
:1052EC000F0085B085E80F00DDF83C80BDF8383044
:1052FC000093CDE901844B46724639466046FFF770
:10530C00ABFEDFF88C9170B90025FEF70FFF16226B
:10531C0000215648FEF7E0FE00232846C9F800306D
:10532C0005B0BDE8F08F524BA27C1A70514BC9F8F6
:10533C0000401B78002B35D0FFF755FD4E49024637
:10534C000220FFF76BF82168A2894B7949880091FC
:10535C0002204A49FFF762F80220FFF725F818B13E
:10536C0023685888FFF754FEE37B23B1228A444913
:10537C000220FFF753F8A268E17CA37C127800911D
:10538C0002204049FFF74AF8207DA289A168121A31
:10539C0001440123022092B2FEF7D8FF3A490220C1
:1053AC00FFF720F83048FFF721FD2F48FCF791F864
:1053BC0005460028A9D1B8F1000F25D12168E6884F
:1053CC000B88E07C0196BA1E49880091032A8CBF99
:1053DC00002201220121FFF751FF064638B923684C
:1053EC005B79FF2B37D0FFF73BFD05468DE7236834
:1053FC00DB889A06F3D4254C1B4801212170FFF75A
:10540C003AFF2570354680E7B8F814309B07E6D490
:10541C007AE73046FCF748FB80463046FCF7EEF85E
:10542C0090B1236840465988FCF7CEFA60B15046DB
:10543C00FFF7DCFC23688BF8048083F80580FFF70A
:10544C000FFD002818BF05460137FCF7D1F8FEB256
:10545C00B042DED859E70027DFF80CA0DFF834B0F3
:10546C00F3E700BF44220020E43200202E2200206B
:10547C006B1C00208A1B0020003003000830030046
:10548C0026300300313003004F3003002822002067
:10549C00043300207A32002038B5D38813F0200F63
:1054AC000CBF5224492405460846590544BF083C04
:1054BC00E4B21A0544BF083CE4B21B0444BF023CEE
:1054CC00E4B2032D11D8DFE805F005020A0EC0B2D4
:1054DC0023F0D8F8FEF70FF8201AC0B238BDC0B2CE
:1054EC0015F018F9F6E7013CE4B24FF6FD70F1E760
:1054FC0042540844120A4270704742540144130A41
:10550C004B70130C120E8B70CA70704770B5064638
:10551C0014460D4609B9317070BD0B78FF2B01D1C3
:10552C000370F9E70846FEF7B3FE844228BF044631
:10553C00E4B22246691C701CFEF772FD3470EBE776
:10554C0070B5054614460E4611B96970297070BDC8
:10555C000B78FF2B05D14B78FF2B02D103704370D6
:10556C00F5E73046FEF799FE844228BF0446A4B204
:10557C002246B11CA81CFEF753FD2C70240A6C703B
:10558C00E5E7F0B5002B3ED0042A3ED8551E00238B
:10559C00ED0016461C46D6B9042A10D0D2000121C3
:1055AC00501E01FA00F020421EBF914049420C43AC
:1055BC0018421EBF4FF0FF3101FA02F213439C4216
:1055CC0027DCB4BF4FF0FF30002040B2F0BD60B11B
:1055DC00871917F8017CAF403C438F19013E17F82F
:1055EC00017CAF403B43083DD5E70746F3E770B17C
:1055FC00831813F8013C8C1814F8014CA34208D8FA
:10560C0002F1FF3207D3002AF1D10020DEE7034676
:10561C00F1E70120DAE74FF0FF30D7E7054A002326
:10562C00D15C814202D31344587870470233DBB209
:10563C00F6E700BFD62F0300283807288CBF0020C0
:10564C000120704700F0E000A0280DD004D810B164
:10565C00802807D0FF207047C02807D0E028F9D158
:10566C001F2070471C2070471D2070471E2070475C
:10567C0000F01F007047000010B50C4608B9FEF78B
:10568C002BFE024B18715C7110BD00BF0C33002057
:10569C00124B70B516464FF48A525980DA80104B73
:1056AC00104A1B88104C002B14BF04210021084306
:1056BC001178002918BF10210843207063B1637062
:1056CC001B0AA3700325FFF715FD6B1C6055E654F0
:1056DC00064B02351D8070BD0125F4E70C3300200C
:1056EC0066220020642200201A3300201833002088
:1056FC00034A04491388C85401331380704700BF10
:10570C00183300201A33002010B50446C0B2FFF73E
:10571C00EFFF200ABDE81040FFF7EABF034B1878F3
:10572C000130C0B2187000F07F0070476922002071
:10573C001FB5030A8DF80E300323009303AB8DF8CD
:10574C000D0000F0BBF805B05DF804FB30B585B07A
:10575C000024ADF80A20021D92B2012A1D46ADF8B4
:10576C000840ADF80610ADF8044003D94FF6FF72AF
:10577C00904207D1064A2B46127801A921F0CCF9A8
:10578C0005B030BD014601AA204621F08BFAF7E79F
:10579C006D1C00202DE9F74FFF2A98461DBF464B84
:1057AC001B689C5C002418BF6408B8F1FF0F1EBF77
:1057BC00414B1B6813F808700E46814614BF7F08D6
:1057CC0000271546FFF7AAFF4FEA19238DF80000B2
:1057DC008DF803600621360A68468DF804608DF852
:1057EC0001908DF802308DF805401BF02DFBFF2841
:1057FC00064604D11824204603B0BDE8F08F4FEACA
:10580C00440B0BF1070A0AEB4701C9B21BF0D0FAA3
:10581C000028EFD10446A3451BD10BF106013A46F3
:10582C0001F0FE0130461BF08AFB5FFA8AF44FF060
:10583C00000A5FFA8AF5AF4223D83346BDF8302010
:10584C0006214846FFF782FF044630461BF094F9C8
:10585C00D1E7214628461BF06DFBA11D0246C9B2BB
:10586C0030461BF06CFB611CC9B228461BF062FB76
:10587C00E11D0246C9B2304602341BF060FBE4B2B3
:10588C00C9E76D00EDB2294640461BF053FB21469B
:10589C00024630461BF053FB691CC9B240461BF054
:1058AC0049FB611C0246C9B2304602341BF047FB6F
:1058BC000AF1010AE4B2BCE7081C0020F8B51C464A
:1058CC000E4617460546FFF729FF9DF81810207065
:1058DC0020461BF0B9FAFF2804460BD003463A4683
:1058EC0028463146FFF732FF054620461BF044F9A7
:1058FC002846F8BD1825FBE70120704710B5084C69
:10590C0023681B685879FCF764FC23681B6858797A
:10591C000CF050FB0020FFF7ABFC012010BD00BFCA
:10592C0004330020194B002210B51A70184B1B6958
:10593C0040F6B732934227D9A3F6B83141F6573225
:10594C00914211D8FBF774FB02281DD0FBF770FBBA
:10595C000446C8B901200F4A0F49FEF743FD204603
:10596C00BDE810400CF036BEA3F51C53103B4CF2B6
:10597C004F32934208D809490120FEF733FD1DF040
:10598C000BFD41F28830EBE710BD00BF7C330020EB
:10599C006C220020A3310300AB310300C1310300A2
:1059AC0070B55A4B5A4D5B4C00261E702B7813F079
:1059BC00010F68D027F0F8FA574A1368C01AB0F5EF
:1059CC00FA7F106080F08E802B7823F001032B700F
:1059DC00237823F001032370314600200CF078FF6C
:1059EC002B7899075DD527F0DFFA4B4A5368C01A1C
:1059FC00B0F5FA7F50607AD22B7823F002032B702B
:105A0C00237823F002032370002101200CF060FFA7
:105A1C002B785A0753D527F0C7FA3F4A9368C01A18
:105A2C00B0F5FA7F906067D22B7823F004032B70CB
:105A3C00237823F004032370002102200CF048FF8C
:105A4C002B781B0749D527F0AFFA334AD368C01A15
:105A5C00B0F5FA7FD06054D22B7823F008032B706A
:105A6C00237823F00803237000210320BDE8704045
:105A7C000CF02EBF2A7823F0010322F001022A70C9
:105A8C0023700221A9E7237823F001032370A7E7F1
:105A9C002A7823F0020322F002022A7023700221DA
:105AAC00B3E7237823F002032370B1E72A7823F0BD
:105ABC00040322F004022A7023700221BDE723782C
:105ACC0023F004032370BBE72A7823F0080322F0A9
:105ADC0008022A7023700221C7E7237823F00803F9
:105AEC00237070BD2378DE07C4D4012175E72378B9
:105AFC009807CDD4012188E723785907D6D4012102
:105B0C009BE723781A07DFD40121AEE76C33002022
:105B1C0080220020812200206C2200202DE9F843F5
:105B2C00374D384B2E78384FDFF8F080DFF8F09097
:105B3C0000241C70C6B1F10711D517F8240000F031
:105B4C0051FE60B9F723424649460120FEF74AFC54
:105B5C00012303FA04F22B7823EA02032B7001349D
:105B6C00052C4FEA5606E5D1284C23780133DBB2DD
:105B7C00032B237015D1264B1B78DA0613D527F08F
:105B8C0013FA244A1369C01A237810610A2B02BF36
:105B9C0000F59F500C3010610A211F481AF0E2FDED
:105BAC0001E00A2BE7D02378042B07D1184B1B7884
:105BBC00DB0603D527F0F8F9164B18612D785DB983
:105BCC0040F20D13154A16490120FEF70BFC154B3C
:105BDC0025701D70BDE8F88323783B2B06D84FF455
:105BEC007A711048BDE8F8431AF0BCBD40F21713A7
:105BFC000A4A0B490120FEF7F5FB00232370E9E765
:105C0C00832200206A220020E83103008222002037
:105C1C00802200206C2200207C3300207C31030089
